{
  "transactions": [
    {
      "hash": "0x34be71863684077579ad0029f832e099ad8e9b55f6272493bd40e7a07aa198b4",
      "transactionType": "CALL",
      "contractName": null,
      "contractAddress": "0x0ebc6e395503ef135b7a45ffc7d42c2a2bc56d54",
      "function": "deposit(address,address,uint256)",
      "arguments": [
        "0xEeeeeEeeeEeEeeEeEeEeeEEEeeeeEeeeeeeeEEeE",
        "0x9C1a83bD6d6010e56BA97e7284e3E17FD92118f8",
        "10000000000000000"
      ],
      "transaction": {
        "from": "0xed0b1a131be880ec49633a80c6df05162fa53518",
        "to": "0x0ebc6e395503ef135b7a45ffc7d42c2a2bc56d54",
        "value": "0x2386f26fc10000",
        "input": "0x8340f549000000000000000000000000eeeeeeeeeeeeeeeeeeeeeeeeeeeeeeeeeeeeeeee0000000000000000000000009c1a83bd6d6010e56ba97e7284e3e17fd92118f8000000000000000000000000000000000000000000000000002386f26fc10000",
        "nonce": "0x0",
        "chainId": "0x14a34"
      },
      "additionalContracts": [],
      "isFixedGasLimit": false
    }
  ],
  "receipts": [
    {
      "status": "0x1",
      "cumulativeGasUsed": "0x500d96",
      "logs": [
        {
          "address": "0x0ebc6e395503ef135b7a45ffc7d42c2a2bc56d54",
          "topics": [
            "0x0fd38537e815732117cfdab41ba9b6d3eb2c5799d44039c100c05fc9c112f235"
          ],
          "data": "0x0000000000000000000000009c1a83bd6d6010e56ba97e7284e3e17fd92118f8000000000000000000000000eeeeeeeeeeeeeeeeeeeeeeeeeeeeeeeeeeeeeeee000000000000000000000000000000000000000000000000002386f26fc10000",
          "blockHash": "0x901b6c5825e1186dbe7b3e855d915955f5617698d5020a2b8362b6b71bfbb844",
          "blockNumber": "0x172dd99",
          "transactionHash": "0x34be71863684077579ad0029f832e099ad8e9b55f6272493bd40e7a07aa198b4",
          "transactionIndex": "0x2c",
          "logIndex": "0x6d",
          "removed": false
        }
      ],
      "logsBloom": "0x00000000000000000000000000000000000000000000000801000000000000000000800000000000000000000000000000000000000000000000000000000000000000000000000000000000000000000000000000000000000000000000000000000000000000000000000000000000000000000000000000000000000000000000000000000000000000000000000000000000200000000000000000000000000000000000000000000000000000000000000000000400000000000000000000000000000000000000000000000000000000002000000000000000000000000000000000000000000000000000000000000000000000000000000000000000",
      "type": "0x2",
      "transactionHash": "0x34be71863684077579ad0029f832e099ad8e9b55f6272493bd40e7a07aa198b4",
      "transactionIndex": "0x2c",
      "blockHash": "0x901b6c5825e1186dbe7b3e855d915955f5617698d5020a2b8362b6b71bfbb844",
      "blockNumber": "0x172dd99",
      "gasUsed": "0xbef9",
      "effectiveGasPrice": "0xe9c16",
      "from": "0xed0b1a131be880ec49633a80c6df05162fa53518",
      "to": "0x0ebc6e395503ef135b7a45ffc7d42c2a2bc56d54",
      "contractAddress": null,
      "l1BaseFeeScalar": "0x44d",
      "l1BlobBaseFee": "0x1",
      "l1BlobBaseFeeScalar": "0xa118b",
      "l1Fee": "0xfef7",
      "l1GasPrice": "0x9097",
      "l1GasUsed": "0x640"
    }
  ],
  "libraries": [],
  "pending": [],
  "returns": {},
  "timestamp": 1744378387,
  "chain": 84532,
  "commit": "1578b4f"
}