{
  "transactions": [
    {
      "hash": "0x5c2800f2d5a54eb03bc31c240f7a05d50c12901a1384c6a6e73e95a84bd05453",
      "transactionType": "CALL",
      "contractName": null,
      "contractAddress": "0x0ebc6e395503ef135b7a45ffc7d42c2a2bc56d54",
      "function": "deposit(address,address,uint256)",
      "arguments": [
        "0xEeeeeEeeeEeEeeEeEeEeeEEEeeeeEeeeeeeeEEeE",
        "0xfdbe0b3164E77b22e0e83917dE613b4633CEbBC6",
        "10000000000000000"
      ],
      "transaction": {
        "from": "0xed0b1a131be880ec49633a80c6df05162fa53518",
        "to": "0x0ebc6e395503ef135b7a45ffc7d42c2a2bc56d54",
        "value": "0x2386f26fc10000",
        "input": "0x8340f549000000000000000000000000eeeeeeeeeeeeeeeeeeeeeeeeeeeeeeeeeeeeeeee000000000000000000000000fdbe0b3164e77b22e0e83917de613b4633cebbc6000000000000000000000000000000000000000000000000002386f26fc10000",
        "nonce": "0x1",
        "chainId": "0x14a34"
      },
      "additionalContracts": [],
      "isFixedGasLimit": false
    }
  ],
  "receipts": [
    {
      "status": "0x1",
      "cumulativeGasUsed": "0x12ef0b",
      "logs": [
        {
          "address": "0x0ebc6e395503ef135b7a45ffc7d42c2a2bc56d54",
          "topics": [
            "0x0fd38537e815732117cfdab41ba9b6d3eb2c5799d44039c100c05fc9c112f235"
          ],
          "data": "0x000000000000000000000000fdbe0b3164e77b22e0e83917de613b4633cebbc6000000000000000000000000eeeeeeeeeeeeeeeeeeeeeeeeeeeeeeeeeeeeeeee000000000000000000000000000000000000000000000000002386f26fc10000",
          "blockHash": "0xe04a399f747818b76a3556fdc2b5e6248b76f0b54c68bf57de13c7dd27d326e0",
          "blockNumber": "0x174a5ad",
          "transactionHash": "0x5c2800f2d5a54eb03bc31c240f7a05d50c12901a1384c6a6e73e95a84bd05453",
          "transactionIndex": "0x8",
          "logIndex": "0x1a",
          "removed": false
        }
      ],
      "logsBloom": "0x00000000000000000000000000000000000000000000000801000000000000000000800000000000000000000000000000000000000000000000000000000000000000000000000000000000000000000000000000000000000000000000000000000000000000000000000000000000000000000000000000000000000000000000000000000000000000000000000000000000200000000000000000000000000000000000000000000000000000000000000000000400000000000000000000000000000000000000000000000000000000002000000000000000000000000000000000000000000000000000000000000000000000000000000000000000",
      "type": "0x2",
      "transactionHash": "0x5c2800f2d5a54eb03bc31c240f7a05d50c12901a1384c6a6e73e95a84bd05453",
      "transactionIndex": "0x8",
      "blockHash": "0xe04a399f747818b76a3556fdc2b5e6248b76f0b54c68bf57de13c7dd27d326e0",
      "blockNumber": "0x174a5ad",
      "gasUsed": "0x7c2d",
      "effectiveGasPrice": "0xf0d9a",
      "from": "0xed0b1a131be880ec49633a80c6df05162fa53518",
      "to": "0x0ebc6e395503ef135b7a45ffc7d42c2a2bc56d54",
      "contractAddress": null,
      "l1BaseFeeScalar": "0x44d",
      "l1BlobBaseFee": "0x1",
      "l1BlobBaseFeeScalar": "0xa118b",
      "l1Fee": "0x40f7628",
      "l1GasPrice": "0x24e10f0",
      "l1GasUsed": "0x640"
    }
  ],
  "libraries": [],
  "pending": [],
  "returns": {},
  "timestamp": 1744611899,
  "chain": 84532,
  "commit": "1578b4f"
}