{
  "transactions": [
    {
      "hash": "0xfa2e63dcb31e0382876e78d937421768318bf56bdd65c6561944a097e51e64a5",
      "transactionType": "CALL",
      "contractName": null,
      "contractAddress": "0x0ebc6e395503ef135b7a45ffc7d42c2a2bc56d54",
      "function": "deposit(address,address,uint256)",
      "arguments": [
        "0xEeeeeEeeeEeEeeEeEeEeeEEEeeeeEeeeeeeeEEeE",
        "0xaCdE0d999D27dEa30e0Cf670c120b1DF189Cd300",
        "10000000000000000"
      ],
      "transaction": {
        "from": "0xed0b1a131be880ec49633a80c6df05162fa53518",
        "to": "0x0ebc6e395503ef135b7a45ffc7d42c2a2bc56d54",
        "value": "0x2386f26fc10000",
        "input": "0x8340f549000000000000000000000000eeeeeeeeeeeeeeeeeeeeeeeeeeeeeeeeeeeeeeee000000000000000000000000acde0d999d27dea30e0cf670c120b1df189cd300000000000000000000000000000000000000000000000000002386f26fc10000",
        "nonce": "0x8",
        "chainId": "0x14a34"
      },
      "additionalContracts": [],
      "isFixedGasLimit": false
    }
  ],
  "receipts": [
    {
      "status": "0x1",
      "cumulativeGasUsed": "0x995a3e",
      "logs": [
        {
          "address": "0x0ebc6e395503ef135b7a45ffc7d42c2a2bc56d54",
          "topics": [
            "0x0fd38537e815732117cfdab41ba9b6d3eb2c5799d44039c100c05fc9c112f235"
          ],
          "data": "0x000000000000000000000000acde0d999d27dea30e0cf670c120b1df189cd300000000000000000000000000eeeeeeeeeeeeeeeeeeeeeeeeeeeeeeeeeeeeeeee000000000000000000000000000000000000000000000000002386f26fc10000",
          "blockHash": "0x4bf82c420a3709cad2640849950d0c11f99b5a83170dff30eaa57a95b8136c72",
          "blockNumber": "0x174ae6b",
          "transactionHash": "0xfa2e63dcb31e0382876e78d937421768318bf56bdd65c6561944a097e51e64a5",
          "transactionIndex": "0x1d",
          "logIndex": "0x8f",
          "removed": false
        }
      ],
      "logsBloom": "0x00000000000000000000000000000000000000000000000801000000000000000000800000000000000000000000000000000000000000000000000000000000000000000000000000000000000000000000000000000000000000000000000000000000000000000000000000000000000000000000000000000000000000000000000000000000000000000000000000000000200000000000000000000000000000000000000000000000000000000000000000000400000000000000000000000000000000000000000000000000000000002000000000000000000000000000000000000000000000000000000000000000000000000000000000000000",
      "type": "0x2",
      "transactionHash": "0xfa2e63dcb31e0382876e78d937421768318bf56bdd65c6561944a097e51e64a5",
      "transactionIndex": "0x1d",
      "blockHash": "0x4bf82c420a3709cad2640849950d0c11f99b5a83170dff30eaa57a95b8136c72",
      "blockNumber": "0x174ae6b",
      "gasUsed": "0x7c21",
      "effectiveGasPrice": "0xf09bf",
      "from": "0xed0b1a131be880ec49633a80c6df05162fa53518",
      "to": "0x0ebc6e395503ef135b7a45ffc7d42c2a2bc56d54",
      "contractAddress": null,
      "l1BaseFeeScalar": "0x44d",
      "l1BlobBaseFee": "0x1",
      "l1BlobBaseFeeScalar": "0xa118b",
      "l1Fee": "0x4dc3c7857",
      "l1GasPrice": "0x2c24f6f2f",
      "l1GasUsed": "0x640"
    }
  ],
  "libraries": [],
  "pending": [],
  "returns": {},
  "timestamp": 1744616375,
  "chain": 84532,
  "commit": "1578b4f"
}