{
  "transactions": [
    {
      "hash": "0xe4ed4930af19612bc946d6654700508297d60e8c10b8c1cc665ffcc8f92cb1cc",
      "transactionType": "CALL",
      "contractName": null,
      "contractAddress": "0xacde0d999d27dea30e0cf670c120b1df189cd300",
      "function": "setFees((uint32,address,uint256))",
      "arguments": [
        "(421614, 0xEeeeeEeeeEeEeeEeEeEeeEEEeeeeEeeeeeeeEEeE, 10000000000000000)"
      ],
      "transaction": {
        "from": "0xed0b1a131be880ec49633a80c6df05162fa53518",
        "to": "0xacde0d999d27dea30e0cf670c120b1df189cd300",
        "value": "0x0",
        "input": "0xf08e37c00000000000000000000000000000000000000000000000000000000000066eee000000000000000000000000eeeeeeeeeeeeeeeeeeeeeeeeeeeeeeeeeeeeeeee000000000000000000000000000000000000000000000000002386f26fc10000",
        "nonce": "0x2",
        "chainId": "0x2b"
      },
      "additionalContracts": [],
      "isFixedGasLimit": false
    }
  ],
  "receipts": [
    {
      "status": "0x1",
      "cumulativeGasUsed": "0x884b",
      "logs": [],
      "logsBloom": "0x00000000000000000000000000000000000000000000000000000000000000000000000000000000000000000000000000000000000000000000000000000000000000000000000000000000000000000000000000000000000000000000000000000000000000000000000000000000000000000000000000000000000000000000000000000000000000000000000000000000000000000000000000000000000000000000000000000000000000000000000000000000000000000000000000000000000000000000000000000000000000000000000000000000000000000000000000000000000000000000000000000000000000000000000000000000",
      "type": "0x0",
      "transactionHash": "0xe4ed4930af19612bc946d6654700508297d60e8c10b8c1cc665ffcc8f92cb1cc",
      "transactionIndex": "0x0",
      "blockHash": "0x928f99d82cf33809403fbbeb177c60346e95003d928a3081c7034d037be29023",
      "blockNumber": "0x3b73a9",
      "gasUsed": "0x884b",
      "effectiveGasPrice": "0x0",
      "from": "0xed0b1a131be880ec49633a80c6df05162fa53518",
      "to": "0xacde0d999d27dea30e0cf670c120b1df189cd300",
      "contractAddress": null
    }
  ],
  "libraries": [],
  "pending": [],
  "returns": {},
  "timestamp": 1744623934,
  "chain": 43,
  "commit": "1578b4f"
}