{
  "transactions": [
    {
      "hash": "0x30adda46366117d8b99924215101593adca2dea58662a5c392d903745efe37fd",
      "transactionType": "CALL",
      "contractName": null,
      "contractAddress": "0x9e263f6c7c199d9c147e30764a8cae1175184cb8",
      "function": "deposit(address,address,uint256)",
      "arguments": [
        "0xEeeeeEeeeEeEeeEeEeEeeEEEeeeeEeeeeeeeEEeE",
        "0xaCdE0d999D27dEa30e0Cf670c120b1DF189Cd300",
        "10000000000000000"
      ],
      "transaction": {
        "from": "0xed0b1a131be880ec49633a80c6df05162fa53518",
        "to": "0x9e263f6c7c199d9c147e30764a8cae1175184cb8",
        "value": "0x2386f26fc10000",
        "input": "0x8340f549000000000000000000000000eeeeeeeeeeeeeeeeeeeeeeeeeeeeeeeeeeeeeeee000000000000000000000000acde0d999d27dea30e0cf670c120b1df189cd300000000000000000000000000000000000000000000000000002386f26fc10000",
        "nonce": "0x1",
        "chainId": "0x66eee"
      },
      "additionalContracts": [],
      "isFixedGasLimit": false
    }
  ],
  "receipts": [
    {
      "status": "0x1",
      "cumulativeGasUsed": "0x6af4f",
      "logs": [
        {
          "address": "0x9e263f6c7c199d9c147e30764a8cae1175184cb8",
          "topics": [
            "0x0fd38537e815732117cfdab41ba9b6d3eb2c5799d44039c100c05fc9c112f235"
          ],
          "data": "0x000000000000000000000000acde0d999d27dea30e0cf670c120b1df189cd300000000000000000000000000eeeeeeeeeeeeeeeeeeeeeeeeeeeeeeeeeeeeeeee000000000000000000000000000000000000000000000000002386f26fc10000",
          "blockHash": "0xe61866a178acf954aee9220496fcb28eb032e9b68b4378e3c389693cd46d5511",
          "blockNumber": "0x87e585d",
          "transactionHash": "0x30adda46366117d8b99924215101593adca2dea58662a5c392d903745efe37fd",
          "transactionIndex": "0x3",
          "logIndex": "0x9",
          "removed": false
        }
      ],
      "logsBloom": "0x00020000000000000000000000000000000000000000000001000000000000000000000000000000000000000000000000000000000000000000000000000000000000000000000000000000000000000000000000000000000000000000000000000000000000000000000000000000000000000000000000000000000000000000000000000000000000000000000000000000200000000800000000000000000000000000000000000000000000000000000000000000000000000000000000000000000000000000000000000000000000002000000000000000000000000000000000000020000000000000000000000000000000000000000000000000",
      "type": "0x2",
      "transactionHash": "0x30adda46366117d8b99924215101593adca2dea58662a5c392d903745efe37fd",
      "transactionIndex": "0x3",
      "blockHash": "0xe61866a178acf954aee9220496fcb28eb032e9b68b4378e3c389693cd46d5511",
      "blockNumber": "0x87e585d",
      "gasUsed": "0xcd42",
      "effectiveGasPrice": "0x5f5e100",
      "from": "0xed0b1a131be880ec49633a80c6df05162fa53518",
      "to": "0x9e263f6c7c199d9c147e30764a8cae1175184cb8",
      "contractAddress": null,
      "gasUsedForL1": "0x5121",
      "l1BlockNumber": "0x7bd641",
      "timeboosted": false
    }
  ],
  "libraries": [],
  "pending": [],
  "returns": {},
  "timestamp": 1744618021,
  "chain": 421614,
  "commit": "1578b4f"
}