{
  "transactions": [
    {
      "hash": "0xd9613374a9902567b881f883047e284d9139caf9568cc511cb5fdd21f9302139",
      "transactionType": "CALL",
      "contractName": null,
      "contractAddress": "0x9e263f6c7c199d9c147e30764a8cae1175184cb8",
      "function": "deposit(address,address,uint256)",
      "arguments": [
        "0xEeeeeEeeeEeEeeEeEeEeeEEEeeeeEeeeeeeeEEeE",
        "0xaCdE0d999D27dEa30e0Cf670c120b1DF189Cd300",
        "10000000000000000"
      ],
      "transaction": {
        "from": "0xed0b1a131be880ec49633a80c6df05162fa53518",
        "to": "0x9e263f6c7c199d9c147e30764a8cae1175184cb8",
        "value": "0x2386f26fc10000",
        "input": "0x8340f549000000000000000000000000eeeeeeeeeeeeeeeeeeeeeeeeeeeeeeeeeeeeeeee000000000000000000000000acde0d999d27dea30e0cf670c120b1df189cd300000000000000000000000000000000000000000000000000002386f26fc10000",
        "nonce": "0x0",
        "chainId": "0x66eee"
      },
      "additionalContracts": [],
      "isFixedGasLimit": false
    }
  ],
  "receipts": [
    {
      "status": "0x1",
      "cumulativeGasUsed": "0x4edd4",
      "logs": [
        {
          "address": "0x9e263f6c7c199d9c147e30764a8cae1175184cb8",
          "topics": [
            "0x0fd38537e815732117cfdab41ba9b6d3eb2c5799d44039c100c05fc9c112f235"
          ],
          "data": "0x000000000000000000000000acde0d999d27dea30e0cf670c120b1df189cd300000000000000000000000000eeeeeeeeeeeeeeeeeeeeeeeeeeeeeeeeeeeeeeee000000000000000000000000000000000000000000000000002386f26fc10000",
          "blockHash": "0x60413c270a156160e3001e1017c4a4235eac5600a4c238c0626ad381e4fd65b4",
          "blockNumber": "0x87e56d2",
          "transactionHash": "0xd9613374a9902567b881f883047e284d9139caf9568cc511cb5fdd21f9302139",
          "transactionIndex": "0x4",
          "logIndex": "0x6",
          "removed": false
        }
      ],
      "logsBloom": "0x00020000000000000000000000000000000000000000000001000000000000000000000000000000000000000000000000000000000000000000000000000000000000000000000000000000000000000000000000000000000000000000000000000000000000000000000000000000000000000000000000000000000000000000000000000000000000000000000000000000200000000800000000000000000000000000000000000000000000000000000000000000000000000000000000000000000000000000000000000000000000002000000000000000000000000000000000000020000000000000000000000000000000000000000000000000",
      "type": "0x2",
      "transactionHash": "0xd9613374a9902567b881f883047e284d9139caf9568cc511cb5fdd21f9302139",
      "transactionIndex": "0x4",
      "blockHash": "0x60413c270a156160e3001e1017c4a4235eac5600a4c238c0626ad381e4fd65b4",
      "blockNumber": "0x87e56d2",
      "gasUsed": "0xa55d",
      "effectiveGasPrice": "0x5f5e100",
      "from": "0xed0b1a131be880ec49633a80c6df05162fa53518",
      "to": "0x9e263f6c7c199d9c147e30764a8cae1175184cb8",
      "contractAddress": null,
      "gasUsedForL1": "0x293c",
      "l1BlockNumber": "0x7bd639",
      "timeboosted": false
    }
  ],
  "libraries": [],
  "pending": [],
  "returns": {},
  "timestamp": 1744617922,
  "chain": 421614,
  "commit": "1578b4f"
}