{
  "transactions": [
    {
      "hash": "0x41066c56619ed87e15c5f03f39d016d682bae29f6e704b1f62311484d38aa01c",
      "transactionType": "CALL",
      "contractName": null,
      "contractAddress": "0x9e263f6c7c199d9c147e30764a8cae1175184cb8",
      "function": "deposit(address,address,uint256)",
      "arguments": [
        "0xEeeeeEeeeEeEeeEeEeEeeEEEeeeeEeeeeeeeEEeE",
        "0xaCdE0d999D27dEa30e0Cf670c120b1DF189Cd300",
        "50000000000000000"
      ],
      "transaction": {
        "from": "0xed0b1a131be880ec49633a80c6df05162fa53518",
        "to": "0x9e263f6c7c199d9c147e30764a8cae1175184cb8",
        "value": "0xb1a2bc2ec50000",
        "input": "0x8340f549000000000000000000000000eeeeeeeeeeeeeeeeeeeeeeeeeeeeeeeeeeeeeeee000000000000000000000000acde0d999d27dea30e0cf670c120b1df189cd30000000000000000000000000000000000000000000000000000b1a2bc2ec50000",
        "nonce": "0x5",
        "chainId": "0x66eee"
      },
      "additionalContracts": [],
      "isFixedGasLimit": false
    }
  ],
  "receipts": [
    {
      "status": "0x1",
      "cumulativeGasUsed": "0x97c10",
      "logs": [
        {
          "address": "0x9e263f6c7c199d9c147e30764a8cae1175184cb8",
          "topics": [
            "0x0fd38537e815732117cfdab41ba9b6d3eb2c5799d44039c100c05fc9c112f235"
          ],
          "data": "0x000000000000000000000000acde0d999d27dea30e0cf670c120b1df189cd300000000000000000000000000eeeeeeeeeeeeeeeeeeeeeeeeeeeeeeeeeeeeeeee00000000000000000000000000000000000000000000000000b1a2bc2ec50000",
          "blockHash": "0x2077dc98d6dc7b05b4e29a952a9b1efed79eead2d236c48544649bc742094f02",
          "blockNumber": "0x87e91d3",
          "transactionHash": "0x41066c56619ed87e15c5f03f39d016d682bae29f6e704b1f62311484d38aa01c",
          "transactionIndex": "0x3",
          "logIndex": "0x1",
          "removed": false
        }
      ],
      "logsBloom": "0x00020000000000000000000000000000000000000000000001000000000000000000000000000000000000000000000000000000000000000000000000000000000000000000000000000000000000000000000000000000000000000000000000000000000000000000000000000000000000000000000000000000000000000000000000000000000000000000000000000000200000000800000000000000000000000000000000000000000000000000000000000000000000000000000000000000000000000000000000000000000000002000000000000000000000000000000000000020000000000000000000000000000000000000000000000000",
      "type": "0x2",
      "transactionHash": "0x41066c56619ed87e15c5f03f39d016d682bae29f6e704b1f62311484d38aa01c",
      "transactionIndex": "0x3",
      "blockHash": "0x2077dc98d6dc7b05b4e29a952a9b1efed79eead2d236c48544649bc742094f02",
      "blockNumber": "0x87e91d3",
      "gasUsed": "0x1ae61",
      "effectiveGasPrice": "0x5f5e100",
      "from": "0xed0b1a131be880ec49633a80c6df05162fa53518",
      "to": "0x9e263f6c7c199d9c147e30764a8cae1175184cb8",
      "contractAddress": null,
      "gasUsedForL1": "0x13240",
      "l1BlockNumber": "0x7bd74f",
      "timeboosted": false
    }
  ],
  "libraries": [],
  "pending": [],
  "returns": {},
  "timestamp": 1744621708,
  "chain": 421614,
  "commit": "1578b4f"
}