{
  "transactions": [
    {
      "hash": "0x80da6c9af11ee884d18e208909f42d32ce5011ebd5642d3a86aec3df9ed904b1",
      "transactionType": "CALL",
      "contractName": null,
      "contractAddress": "0x9e263f6c7c199d9c147e30764a8cae1175184cb8",
      "function": "deposit(address,address,uint256)",
      "arguments": [
        "0xEeeeeEeeeEeEeeEeEeEeeEEEeeeeEeeeeeeeEEeE",
        "0x020De3c3492c038D174c32A58986b2bA852000Ca",
        "5000000000000000"
      ],
      "transaction": {
        "from": "0xed0b1a131be880ec49633a80c6df05162fa53518",
        "to": "0x9e263f6c7c199d9c147e30764a8cae1175184cb8",
        "value": "0x11c37937e08000",
        "input": "0x8340f549000000000000000000000000eeeeeeeeeeeeeeeeeeeeeeeeeeeeeeeeeeeeeeee000000000000000000000000020de3c3492c038d174c32a58986b2ba852000ca0000000000000000000000000000000000000000000000000011c37937e08000",
        "nonce": "0x7",
        "chainId": "0x66eee"
      },
      "additionalContracts": [],
      "isFixedGasLimit": false
    }
  ],
  "receipts": [
    {
      "status": "0x1",
      "cumulativeGasUsed": "0x239c5",
      "logs": [
        {
          "address": "0x9e263f6c7c199d9c147e30764a8cae1175184cb8",
          "topics": [
            "0x0fd38537e815732117cfdab41ba9b6d3eb2c5799d44039c100c05fc9c112f235"
          ],
          "data": "0x000000000000000000000000020de3c3492c038d174c32a58986b2ba852000ca000000000000000000000000eeeeeeeeeeeeeeeeeeeeeeeeeeeeeeeeeeeeeeee0000000000000000000000000000000000000000000000000011c37937e08000",
          "blockHash": "0x9d8293d1ff371c447c3358b563cd9f5147f56127c61c0e69eddc4f42b4847c52",
          "blockNumber": "0x889ad75",
          "transactionHash": "0x80da6c9af11ee884d18e208909f42d32ce5011ebd5642d3a86aec3df9ed904b1",
          "transactionIndex": "0x2",
          "logIndex": "0x4",
          "removed": false
        }
      ],
      "logsBloom": "0x00020000000000000000000000000000000000000000000001000000000000000000000000000000000000000000000000000000000000000000000000000000000000000000000000000000000000000000000000000000000000000000000000000000000000000000000000000000000000000000000000000000000000000000000000000000000000000000000000000000200000000800000000000000000000000000000000000000000000000000000000000000000000000000000000000000000000000000000000000000000000002000000000000000000000000000000000000020000000000000000000000000000000000000000000000000",
      "type": "0x2",
      "transactionHash": "0x80da6c9af11ee884d18e208909f42d32ce5011ebd5642d3a86aec3df9ed904b1",
      "transactionIndex": "0x2",
      "blockHash": "0x9d8293d1ff371c447c3358b563cd9f5147f56127c61c0e69eddc4f42b4847c52",
      "blockNumber": "0x889ad75",
      "gasUsed": "0x7c2d",
      "effectiveGasPrice": "0x5f5e100",
      "from": "0xed0b1a131be880ec49633a80c6df05162fa53518",
      "to": "0x9e263f6c7c199d9c147e30764a8cae1175184cb8",
      "contractAddress": null,
      "gasUsedForL1": "0x0",
      "l1BlockNumber": "0x7c0e60",
      "timeboosted": false
    }
  ],
  "libraries": [],
  "pending": [],
  "returns": {},
  "timestamp": 1744804356,
  "chain": 421614,
  "commit": "aa4a25e"
}