{
  "transactions": [
    {
      "hash": "0x178154c66c6fdb3fb117c749ebb413aea7bc93ebc22dd2e69d747403a637b7f6",
      "transactionType": "CALL",
      "contractName": null,
      "contractAddress": "0x9e263f6c7c199d9c147e30764a8cae1175184cb8",
      "function": "deposit(address,address,uint256)",
      "arguments": [
        "0xEeeeeEeeeEeEeeEeEeEeeEEEeeeeEeeeeeeeEEeE",
        "0x57fd3138b7dBc947cbA635DD4ac844C26B961E44",
        "5000000000000000"
      ],
      "transaction": {
        "from": "0xed0b1a131be880ec49633a80c6df05162fa53518",
        "to": "0x9e263f6c7c199d9c147e30764a8cae1175184cb8",
        "value": "0x11c37937e08000",
        "input": "0x8340f549000000000000000000000000eeeeeeeeeeeeeeeeeeeeeeeeeeeeeeeeeeeeeeee00000000000000000000000057fd3138b7dbc947cba635dd4ac844c26b961e440000000000000000000000000000000000000000000000000011c37937e08000",
        "nonce": "0x42",
        "chainId": "0x66eee"
      },
      "additionalContracts": [],
      "isFixedGasLimit": false
    },
    {
      "hash": "0x24c1af4f12e2baac6f82078491f20fde1c1321a0bae5bd19da019a02f39fc5b5",
      "transactionType": "CALL",
      "contractName": null,
      "contractAddress": "0x9e263f6c7c199d9c147e30764a8cae1175184cb8",
      "function": "deposit(address,address,uint256)",
      "arguments": [
        "0xEeeeeEeeeEeEeeEeEeEeeEEEeeeeEeeeeeeeEEeE",
        "0x940E7e669b4330E10a6a3c26A6B38a56FD960C31",
        "5000000000000000"
      ],
      "transaction": {
        "from": "0xed0b1a131be880ec49633a80c6df05162fa53518",
        "to": "0x9e263f6c7c199d9c147e30764a8cae1175184cb8",
        "value": "0x11c37937e08000",
        "input": "0x8340f549000000000000000000000000eeeeeeeeeeeeeeeeeeeeeeeeeeeeeeeeeeeeeeee000000000000000000000000940e7e669b4330e10a6a3c26a6b38a56fd960c310000000000000000000000000000000000000000000000000011c37937e08000",
        "nonce": "0x43",
        "chainId": "0x66eee"
      },
      "additionalContracts": [],
      "isFixedGasLimit": false
    },
    {
      "hash": "0x7407bb042f1b7e0ae58d0916116f1de1c147748fbdb7a82c9458b3b9511baa6c",
      "transactionType": "CALL",
      "contractName": null,
      "contractAddress": "0x9e263f6c7c199d9c147e30764a8cae1175184cb8",
      "function": "deposit(address,address,uint256)",
      "arguments": [
        "0xEeeeeEeeeEeEeeEeEeEeeEEEeeeeEeeeeeeeEEeE",
        "0x72bcC95D5BAAAb05a77f9a8a7A9979385bc17FfA",
        "5000000000000000"
      ],
      "transaction": {
        "from": "0xed0b1a131be880ec49633a80c6df05162fa53518",
        "to": "0x9e263f6c7c199d9c147e30764a8cae1175184cb8",
        "value": "0x11c37937e08000",
        "input": "0x8340f549000000000000000000000000eeeeeeeeeeeeeeeeeeeeeeeeeeeeeeeeeeeeeeee00000000000000000000000072bcc95d5baaab05a77f9a8a7a9979385bc17ffa0000000000000000000000000000000000000000000000000011c37937e08000",
        "nonce": "0x44",
        "chainId": "0x66eee"
      },
      "additionalContracts": [],
      "isFixedGasLimit": false
    }
  ],
  "receipts": [
    {
      "status": "0x1",
      "cumulativeGasUsed": "0x339a30",
      "logs": [
        {
          "address": "0x9e263f6c7c199d9c147e30764a8cae1175184cb8",
          "topics": [
            "0x0fd38537e815732117cfdab41ba9b6d3eb2c5799d44039c100c05fc9c112f235"
          ],
          "data": "0x00000000000000000000000057fd3138b7dbc947cba635dd4ac844c26b961e44000000000000000000000000eeeeeeeeeeeeeeeeeeeeeeeeeeeeeeeeeeeeeeee0000000000000000000000000000000000000000000000000011c37937e08000",
          "blockHash": "0xc87b45666bdb5b537b2f671e9795b0286a92bc344566c3f646178f0e63bb3a23",
          "blockNumber": "0x8dcd444",
          "transactionHash": "0x178154c66c6fdb3fb117c749ebb413aea7bc93ebc22dd2e69d747403a637b7f6",
          "transactionIndex": "0x12",
          "logIndex": "0x4",
          "removed": false
        }
      ],
      "logsBloom": "0x00020000000000000000000000000000000000000000000001000000000000000000000000000000000000000000000000000000000000000000000000000000000000000000000000000000000000000000000000000000000000000000000000000000000000000000000000000000000000000000000000000000000000000000000000000000000000000000000000000000200000000800000000000000000000000000000000000000000000000000000000000000000000000000000000000000000000000000000000000000000000002000000000000000000000000000000000000020000000000000000000000000000000000000000000000000",
      "type": "0x2",
      "transactionHash": "0x178154c66c6fdb3fb117c749ebb413aea7bc93ebc22dd2e69d747403a637b7f6",
      "transactionIndex": "0x12",
      "blockHash": "0xc87b45666bdb5b537b2f671e9795b0286a92bc344566c3f646178f0e63bb3a23",
      "blockNumber": "0x8dcd444",
      "gasUsed": "0x1a0f2",
      "effectiveGasPrice": "0x5f5e100",
      "from": "0xed0b1a131be880ec49633a80c6df05162fa53518",
      "to": "0x9e263f6c7c199d9c147e30764a8cae1175184cb8",
      "contractAddress": null,
      "gasUsedForL1": "0x124b9",
      "l1BlockNumber": "0x7db85f",
      "timeboosted": false
    },
    {
      "status": "0x1",
      "cumulativeGasUsed": "0x3ae016",
      "logs": [
        {
          "address": "0x9e263f6c7c199d9c147e30764a8cae1175184cb8",
          "topics": [
            "0x0fd38537e815732117cfdab41ba9b6d3eb2c5799d44039c100c05fc9c112f235"
          ],
          "data": "0x000000000000000000000000940e7e669b4330e10a6a3c26a6b38a56fd960c31000000000000000000000000eeeeeeeeeeeeeeeeeeeeeeeeeeeeeeeeeeeeeeee0000000000000000000000000000000000000000000000000011c37937e08000",
          "blockHash": "0x53041abc86608015779d8b0054de6474b836677a0513403831bffe3ff8821f10",
          "blockNumber": "0x8dcd44a",
          "transactionHash": "0x24c1af4f12e2baac6f82078491f20fde1c1321a0bae5bd19da019a02f39fc5b5",
          "transactionIndex": "0x13",
          "logIndex": "0x1b",
          "removed": false
        }
      ],
      "logsBloom": "0x00020000000000000000000000000000000000000000000001000000000000000000000000000000000000000000000000000000000000000000000000000000000000000000000000000000000000000000000000000000000000000000000000000000000000000000000000000000000000000000000000000000000000000000000000000000000000000000000000000000200000000800000000000000000000000000000000000000000000000000000000000000000000000000000000000000000000000000000000000000000000002000000000000000000000000000000000000020000000000000000000000000000000000000000000000000",
      "type": "0x2",
      "transactionHash": "0x24c1af4f12e2baac6f82078491f20fde1c1321a0bae5bd19da019a02f39fc5b5",
      "transactionIndex": "0x13",
      "blockHash": "0x53041abc86608015779d8b0054de6474b836677a0513403831bffe3ff8821f10",
      "blockNumber": "0x8dcd44a",
      "gasUsed": "0x1a0f2",
      "effectiveGasPrice": "0x5f5e100",
      "from": "0xed0b1a131be880ec49633a80c6df05162fa53518",
      "to": "0x9e263f6c7c199d9c147e30764a8cae1175184cb8",
      "contractAddress": null,
      "gasUsedForL1": "0x124b9",
      "l1BlockNumber": "0x7db85f",
      "timeboosted": false
    },
    {
      "status": "0x1",
      "cumulativeGasUsed": "0x9fa5c",
      "logs": [
        {
          "address": "0x9e263f6c7c199d9c147e30764a8cae1175184cb8",
          "topics": [
            "0x0fd38537e815732117cfdab41ba9b6d3eb2c5799d44039c100c05fc9c112f235"
          ],
          "data": "0x00000000000000000000000072bcc95d5baaab05a77f9a8a7a9979385bc17ffa000000000000000000000000eeeeeeeeeeeeeeeeeeeeeeeeeeeeeeeeeeeeeeee0000000000000000000000000000000000000000000000000011c37937e08000",
          "blockHash": "0x2fb421ee32b85dbdbefe4db640a05ada9687f752d071d88c9615b308b156138c",
          "blockNumber": "0x8dcd451",
          "transactionHash": "0x7407bb042f1b7e0ae58d0916116f1de1c147748fbdb7a82c9458b3b9511baa6c",
          "transactionIndex": "0x5",
          "logIndex": "0x0",
          "removed": false
        }
      ],
      "logsBloom": "0x00020000000000000000000000000000000000000000000001000000000000000000000000000000000000000000000000000000000000000000000000000000000000000000000000000000000000000000000000000000000000000000000000000000000000000000000000000000000000000000000000000000000000000000000000000000000000000000000000000000200000000800000000000000000000000000000000000000000000000000000000000000000000000000000000000000000000000000000000000000000000002000000000000000000000000000000000000020000000000000000000000000000000000000000000000000",
      "type": "0x2",
      "transactionHash": "0x7407bb042f1b7e0ae58d0916116f1de1c147748fbdb7a82c9458b3b9511baa6c",
      "transactionIndex": "0x5",
      "blockHash": "0x2fb421ee32b85dbdbefe4db640a05ada9687f752d071d88c9615b308b156138c",
      "blockNumber": "0x8dcd451",
      "gasUsed": "0x1a0f2",
      "effectiveGasPrice": "0x5f5e100",
      "from": "0xed0b1a131be880ec49633a80c6df05162fa53518",
      "to": "0x9e263f6c7c199d9c147e30764a8cae1175184cb8",
      "contractAddress": null,
      "gasUsedForL1": "0x124b9",
      "l1BlockNumber": "0x7db85f",
      "timeboosted": false
    }
  ],
  "libraries": [],
  "pending": [],
  "returns": {},
  "timestamp": 1746177419,
  "chain": 421614,
  "commit": "c3713fb"
}