{
  "transactions": [
    {
      "hash": "0x6d8c8501278b2312f64b14bc8337d31e79910a5345dbe659615d6e3968d66895",
      "transactionType": "CALL",
      "contractName": null,
      "contractAddress": "0x9e263f6c7c199d9c147e30764a8cae1175184cb8",
      "function": "deposit(address,address,uint256)",
      "arguments": [
        "0xEeeeeEeeeEeEeeEeEeEeeEEEeeeeEeeeeeeeEEeE",
        "0xE9E17D082736BF4e1b6d029faD0e503f5E192817",
        "5000000000000000"
      ],
      "transaction": {
        "from": "0xed0b1a131be880ec49633a80c6df05162fa53518",
        "to": "0x9e263f6c7c199d9c147e30764a8cae1175184cb8",
        "value": "0x11c37937e08000",
        "input": "0x8340f549000000000000000000000000eeeeeeeeeeeeeeeeeeeeeeeeeeeeeeeeeeeeeeee000000000000000000000000e9e17d082736bf4e1b6d029fad0e503f5e1928170000000000000000000000000000000000000000000000000011c37937e08000",
        "nonce": "0x15",
        "chainId": "0x66eee"
      },
      "additionalContracts": [],
      "isFixedGasLimit": false
    }
  ],
  "receipts": [
    {
      "status": "0x1",
      "cumulativeGasUsed": "0xf15d",
      "logs": [
        {
          "address": "0x9e263f6c7c199d9c147e30764a8cae1175184cb8",
          "topics": [
            "0x0fd38537e815732117cfdab41ba9b6d3eb2c5799d44039c100c05fc9c112f235"
          ],
          "data": "0x000000000000000000000000e9e17d082736bf4e1b6d029fad0e503f5e192817000000000000000000000000eeeeeeeeeeeeeeeeeeeeeeeeeeeeeeeeeeeeeeee0000000000000000000000000000000000000000000000000011c37937e08000",
          "blockHash": "0xdea374f01eacb6ae06bbd98b972e77a5a9e0c8f45fdf069c7f9f8a1afa4a53e1",
          "blockNumber": "0x88effe9",
          "transactionHash": "0x6d8c8501278b2312f64b14bc8337d31e79910a5345dbe659615d6e3968d66895",
          "transactionIndex": "0x2",
          "logIndex": "0x0",
          "removed": false
        }
      ],
      "logsBloom": "0x00020000000000000000000000000000000000000000000001000000000000000000000000000000000000000000000000000000000000000000000000000000000000000000000000000000000000000000000000000000000000000000000000000000000000000000000000000000000000000000000000000000000000000000000000000000000000000000000000000000200000000800000000000000000000000000000000000000000000000000000000000000000000000000000000000000000000000000000000000000000000002000000000000000000000000000000000000020000000000000000000000000000000000000000000000000",
      "type": "0x2",
      "transactionHash": "0x6d8c8501278b2312f64b14bc8337d31e79910a5345dbe659615d6e3968d66895",
      "transactionIndex": "0x2",
      "blockHash": "0xdea374f01eacb6ae06bbd98b972e77a5a9e0c8f45fdf069c7f9f8a1afa4a53e1",
      "blockNumber": "0x88effe9",
      "gasUsed": "0x7c39",
      "effectiveGasPrice": "0x5f5e100",
      "from": "0xed0b1a131be880ec49633a80c6df05162fa53518",
      "to": "0x9e263f6c7c199d9c147e30764a8cae1175184cb8",
      "contractAddress": null,
      "gasUsedForL1": "0x0",
      "l1BlockNumber": "0x7c28bb",
      "timeboosted": false
    }
  ],
  "libraries": [],
  "pending": [],
  "returns": {},
  "timestamp": 1744891597,
  "chain": 421614,
  "commit": "d9c3d8e"
}