{
  "transactions": [
    {
      "hash": "0x683e11b1d499a045b390099916d1cf36c8a06ff049d4b4987faccee8af0ce6be",
      "transactionType": "CALL",
      "contractName": null,
      "contractAddress": "0x9e263f6c7c199d9c147e30764a8cae1175184cb8",
      "function": "deposit(address,address,uint256)",
      "arguments": [
        "0xEeeeeEeeeEeEeeEeEeEeeEEEeeeeEeeeeeeeEEeE",
        "0xE49798f3C4f29f41D1e53e870065F1669EECFB6C",
        "5000000000000000"
      ],
      "transaction": {
        "from": "0xed0b1a131be880ec49633a80c6df05162fa53518",
        "to": "0x9e263f6c7c199d9c147e30764a8cae1175184cb8",
        "value": "0x11c37937e08000",
        "input": "0x8340f549000000000000000000000000eeeeeeeeeeeeeeeeeeeeeeeeeeeeeeeeeeeeeeee000000000000000000000000e49798f3c4f29f41d1e53e870065f1669eecfb6c0000000000000000000000000000000000000000000000000011c37937e08000",
        "nonce": "0x35",
        "chainId": "0x66eee"
      },
      "additionalContracts": [],
      "isFixedGasLimit": false
    }
  ],
  "receipts": [
    {
      "status": "0x1",
      "cumulativeGasUsed": "0x139a0a",
      "logs": [
        {
          "address": "0x9e263f6c7c199d9c147e30764a8cae1175184cb8",
          "topics": [
            "0x0fd38537e815732117cfdab41ba9b6d3eb2c5799d44039c100c05fc9c112f235"
          ],
          "data": "0x000000000000000000000000e49798f3c4f29f41d1e53e870065f1669eecfb6c000000000000000000000000eeeeeeeeeeeeeeeeeeeeeeeeeeeeeeeeeeeeeeee0000000000000000000000000000000000000000000000000011c37937e08000",
          "blockHash": "0xc0cd02f43ab17afa398fcedcf10f68abf8d29df6b8f38d19fd96e18d822e4a49",
          "blockNumber": "0x8cd76d2",
          "transactionHash": "0x683e11b1d499a045b390099916d1cf36c8a06ff049d4b4987faccee8af0ce6be",
          "transactionIndex": "0x4",
          "logIndex": "0x4",
          "removed": false
        }
      ],
      "logsBloom": "0x00020000000000000000000000000000000000000000000001000000000000000000000000000000000000000000000000000000000000000000000000000000000000000000000000000000000000000000000000000000000000000000000000000000000000000000000000000000000000000000000000000000000000000000000000000000000000000000000000000000200000000800000000000000000000000000000000000000000000000000000000000000000000000000000000000000000000000000000000000000000000002000000000000000000000000000000000000020000000000000000000000000000000000000000000000000",
      "type": "0x2",
      "transactionHash": "0x683e11b1d499a045b390099916d1cf36c8a06ff049d4b4987faccee8af0ce6be",
      "transactionIndex": "0x4",
      "blockHash": "0xc0cd02f43ab17afa398fcedcf10f68abf8d29df6b8f38d19fd96e18d822e4a49",
      "blockNumber": "0x8cd76d2",
      "gasUsed": "0x12823",
      "effectiveGasPrice": "0x5f5e100",
      "from": "0xed0b1a131be880ec49633a80c6df05162fa53518",
      "to": "0x9e263f6c7c199d9c147e30764a8cae1175184cb8",
      "contractAddress": null,
      "gasUsedForL1": "0xabf6",
      "l1BlockNumber": "0x7d699f",
      "timeboosted": false
    }
  ],
  "libraries": [],
  "pending": [],
  "returns": {},
  "timestamp": 1745923226,
  "chain": 421614,
  "commit": "249d533"
}