{
  "transactions": [
    {
      "hash": "0x99f311b392ff38efd2ddcf88702f29f994bbfb171c28ae71b199afc1444b9db3",
      "transactionType": "CALL",
      "contractName": null,
      "contractAddress": "0x9e263f6c7c199d9c147e30764a8cae1175184cb8",
      "function": "deposit(address,address,uint256)",
      "arguments": [
        "0xEeeeeEeeeEeEeeEeEeEeeEEEeeeeEeeeeeeeEEeE",
        "0x1d4487475b18B10d94331f77185d56212Da579Ef",
        "5000000000000000"
      ],
      "transaction": {
        "from": "0xed0b1a131be880ec49633a80c6df05162fa53518",
        "to": "0x9e263f6c7c199d9c147e30764a8cae1175184cb8",
        "value": "0x11c37937e08000",
        "input": "0x8340f549000000000000000000000000eeeeeeeeeeeeeeeeeeeeeeeeeeeeeeeeeeeeeeee0000000000000000000000001d4487475b18b10d94331f77185d56212da579ef0000000000000000000000000000000000000000000000000011c37937e08000",
        "nonce": "0x17",
        "chainId": "0x66eee"
      },
      "additionalContracts": [],
      "isFixedGasLimit": false
    }
  ],
  "receipts": [
    {
      "status": "0x1",
      "cumulativeGasUsed": "0x15d34",
      "logs": [
        {
          "address": "0x9e263f6c7c199d9c147e30764a8cae1175184cb8",
          "topics": [
            "0x0fd38537e815732117cfdab41ba9b6d3eb2c5799d44039c100c05fc9c112f235"
          ],
          "data": "0x0000000000000000000000001d4487475b18b10d94331f77185d56212da579ef000000000000000000000000eeeeeeeeeeeeeeeeeeeeeeeeeeeeeeeeeeeeeeee0000000000000000000000000000000000000000000000000011c37937e08000",
          "blockHash": "0xd396d320bf325a2ae2e7ade9ff3254fc9865dbd6a91a47db78aced8f7f780ab8",
          "blockNumber": "0x8937398",
          "transactionHash": "0x99f311b392ff38efd2ddcf88702f29f994bbfb171c28ae71b199afc1444b9db3",
          "transactionIndex": "0x3",
          "logIndex": "0x2",
          "removed": false
        }
      ],
      "logsBloom": "0x00020000000000000000000000000000000000000000000001000000000000000000000000000000000000000000000000000000000000000000000000000000000000000000000000000000000000000000000000000000000000000000000000000000000000000000000000000000000000000000000000000000000000000000000000000000000000000000000000000000200000000800000000000000000000000000000000000000000000000000000000000000000000000000000000000000000000000000000000000000000000002000000000000000000000000000000000000020000000000000000000000000000000000000000000000000",
      "type": "0x2",
      "transactionHash": "0x99f311b392ff38efd2ddcf88702f29f994bbfb171c28ae71b199afc1444b9db3",
      "transactionIndex": "0x3",
      "blockHash": "0xd396d320bf325a2ae2e7ade9ff3254fc9865dbd6a91a47db78aced8f7f780ab8",
      "blockNumber": "0x8937398",
      "gasUsed": "0x7c39",
      "effectiveGasPrice": "0x5f5e100",
      "from": "0xed0b1a131be880ec49633a80c6df05162fa53518",
      "to": "0x9e263f6c7c199d9c147e30764a8cae1175184cb8",
      "contractAddress": null,
      "gasUsedForL1": "0x0",
      "l1BlockNumber": "0x7c3faf",
      "timeboosted": false
    }
  ],
  "libraries": [],
  "pending": [],
  "returns": {},
  "timestamp": 1744964412,
  "chain": 421614,
  "commit": "35b44de"
}