{
  "transactions": [
    {
      "hash": "0xbb54d76576d25d46d4587f17f433a6e09486e2a922076c11b7401834ba164341",
      "transactionType": "CALL",
      "contractName": null,
      "contractAddress": "0x9e263f6c7c199d9c147e30764a8cae1175184cb8",
      "function": "deposit(address,address,uint256)",
      "arguments": [
        "0xEeeeeEeeeEeEeeEeEeEeeEEEeeeeEeeeeeeeEEeE",
        "0x9EB2692B981105aeA272B1755ccfb59b0332fEFf",
        "5000000000000000"
      ],
      "transaction": {
        "from": "0xed0b1a131be880ec49633a80c6df05162fa53518",
        "to": "0x9e263f6c7c199d9c147e30764a8cae1175184cb8",
        "value": "0x11c37937e08000",
        "input": "0x8340f549000000000000000000000000eeeeeeeeeeeeeeeeeeeeeeeeeeeeeeeeeeeeeeee0000000000000000000000009eb2692b981105aea272b1755ccfb59b0332feff0000000000000000000000000000000000000000000000000011c37937e08000",
        "nonce": "0x3d",
        "chainId": "0x66eee"
      },
      "additionalContracts": [],
      "isFixedGasLimit": false
    },
    {
      "hash": "0x07dec97ca03816166e3d090f8f08b697d9d3356ef5d34b53c35da598ba219066",
      "transactionType": "CALL",
      "contractName": null,
      "contractAddress": "0x9e263f6c7c199d9c147e30764a8cae1175184cb8",
      "function": "deposit(address,address,uint256)",
      "arguments": [
        "0xEeeeeEeeeEeEeeEeEeEeeEEEeeeeEeeeeeeeEEeE",
        "0x8270E8b86e956DB0811dF3b8d3AbCC27d77643E8",
        "5000000000000000"
      ],
      "transaction": {
        "from": "0xed0b1a131be880ec49633a80c6df05162fa53518",
        "to": "0x9e263f6c7c199d9c147e30764a8cae1175184cb8",
        "value": "0x11c37937e08000",
        "input": "0x8340f549000000000000000000000000eeeeeeeeeeeeeeeeeeeeeeeeeeeeeeeeeeeeeeee0000000000000000000000008270e8b86e956db0811df3b8d3abcc27d77643e80000000000000000000000000000000000000000000000000011c37937e08000",
        "nonce": "0x3e",
        "chainId": "0x66eee"
      },
      "additionalContracts": [],
      "isFixedGasLimit": false
    },
    {
      "hash": "0x8ef13160c55fa74cf0c0e717eab550ac09e1b553e271e1fcff697cc7aac5c46d",
      "transactionType": "CALL",
      "contractName": null,
      "contractAddress": "0x9e263f6c7c199d9c147e30764a8cae1175184cb8",
      "function": "deposit(address,address,uint256)",
      "arguments": [
        "0xEeeeeEeeeEeEeeEeEeEeeEEEeeeeEeeeeeeeEEeE",
        "0xcd213018BB0F966a975FDb6DE128564d30088E56",
        "5000000000000000"
      ],
      "transaction": {
        "from": "0xed0b1a131be880ec49633a80c6df05162fa53518",
        "to": "0x9e263f6c7c199d9c147e30764a8cae1175184cb8",
        "value": "0x11c37937e08000",
        "input": "0x8340f549000000000000000000000000eeeeeeeeeeeeeeeeeeeeeeeeeeeeeeeeeeeeeeee000000000000000000000000cd213018bb0f966a975fdb6de128564d30088e560000000000000000000000000000000000000000000000000011c37937e08000",
        "nonce": "0x3f",
        "chainId": "0x66eee"
      },
      "additionalContracts": [],
      "isFixedGasLimit": false
    }
  ],
  "receipts": [
    {
      "status": "0x1",
      "cumulativeGasUsed": "0x384ba",
      "logs": [
        {
          "address": "0x9e263f6c7c199d9c147e30764a8cae1175184cb8",
          "topics": [
            "0x0fd38537e815732117cfdab41ba9b6d3eb2c5799d44039c100c05fc9c112f235"
          ],
          "data": "0x0000000000000000000000009eb2692b981105aea272b1755ccfb59b0332feff000000000000000000000000eeeeeeeeeeeeeeeeeeeeeeeeeeeeeeeeeeeeeeee0000000000000000000000000000000000000000000000000011c37937e08000",
          "blockHash": "0x977a1eebd25a14b1a685a2e6f51b6d7dbaf009a0e4c49e19568f703a812ff6e2",
          "blockNumber": "0x8dca555",
          "transactionHash": "0xbb54d76576d25d46d4587f17f433a6e09486e2a922076c11b7401834ba164341",
          "transactionIndex": "0x1",
          "logIndex": "0x0",
          "removed": false
        }
      ],
      "logsBloom": "0x00020000000000000000000000000000000000000000000001000000000000000000000000000000000000000000000000000000000000000000000000000000000000000000000000000000000000000000000000000000000000000000000000000000000000000000000000000000000000000000000000000000000000000000000000000000000000000000000000000000200000000800000000000000000000000000000000000000000000000000000000000000000000000000000000000000000000000000000000000000000000002000000000000000000000000000000000000020000000000000000000000000000000000000000000000000",
      "type": "0x2",
      "transactionHash": "0xbb54d76576d25d46d4587f17f433a6e09486e2a922076c11b7401834ba164341",
      "transactionIndex": "0x1",
      "blockHash": "0x977a1eebd25a14b1a685a2e6f51b6d7dbaf009a0e4c49e19568f703a812ff6e2",
      "blockNumber": "0x8dca555",
      "gasUsed": "0x384ba",
      "effectiveGasPrice": "0x5f5e100",
      "from": "0xed0b1a131be880ec49633a80c6df05162fa53518",
      "to": "0x9e263f6c7c199d9c147e30764a8cae1175184cb8",
      "contractAddress": null,
      "gasUsedForL1": "0x30881",
      "l1BlockNumber": "0x7db766",
      "timeboosted": false
    },
    {
      "status": "0x1",
      "cumulativeGasUsed": "0xb0e63",
      "logs": [
        {
          "address": "0x9e263f6c7c199d9c147e30764a8cae1175184cb8",
          "topics": [
            "0x0fd38537e815732117cfdab41ba9b6d3eb2c5799d44039c100c05fc9c112f235"
          ],
          "data": "0x0000000000000000000000008270e8b86e956db0811df3b8d3abcc27d77643e8000000000000000000000000eeeeeeeeeeeeeeeeeeeeeeeeeeeeeeeeeeeeeeee0000000000000000000000000000000000000000000000000011c37937e08000",
          "blockHash": "0xc8a48584a9a13d3fbc646c88d7fca11e49816eb040381db86f55717e4e96e3fb",
          "blockNumber": "0x8dca55b",
          "transactionHash": "0x07dec97ca03816166e3d090f8f08b697d9d3356ef5d34b53c35da598ba219066",
          "transactionIndex": "0x3",
          "logIndex": "0x1",
          "removed": false
        }
      ],
      "logsBloom": "0x00020000000000000000000000000000000000000000000001000000000000000000000000000000000000000000000000000000000000000000000000000000000000000000000000000000000000000000000000000000000000000000000000000000000000000000000000000000000000000000000000000000000000000000000000000000000000000000000000000000200000000800000000000000000000000000000000000000000000000000000000000000000000000000000000000000000000000000000000000000000000002000000000000000000000000000000000000020000000000000000000000000000000000000000000000000",
      "type": "0x2",
      "transactionHash": "0x07dec97ca03816166e3d090f8f08b697d9d3356ef5d34b53c35da598ba219066",
      "transactionIndex": "0x3",
      "blockHash": "0xc8a48584a9a13d3fbc646c88d7fca11e49816eb040381db86f55717e4e96e3fb",
      "blockNumber": "0x8dca55b",
      "gasUsed": "0x384ba",
      "effectiveGasPrice": "0x5f5e100",
      "from": "0xed0b1a131be880ec49633a80c6df05162fa53518",
      "to": "0x9e263f6c7c199d9c147e30764a8cae1175184cb8",
      "contractAddress": null,
      "gasUsedForL1": "0x30881",
      "l1BlockNumber": "0x7db766",
      "timeboosted": false
    },
    {
      "status": "0x1",
      "cumulativeGasUsed": "0x571d8",
      "logs": [
        {
          "address": "0x9e263f6c7c199d9c147e30764a8cae1175184cb8",
          "topics": [
            "0x0fd38537e815732117cfdab41ba9b6d3eb2c5799d44039c100c05fc9c112f235"
          ],
          "data": "0x000000000000000000000000cd213018bb0f966a975fdb6de128564d30088e56000000000000000000000000eeeeeeeeeeeeeeeeeeeeeeeeeeeeeeeeeeeeeeee0000000000000000000000000000000000000000000000000011c37937e08000",
          "blockHash": "0x7fb675af47ffcbbbc782edcd794bfb6e716e732888fcd9f42001f5a1a277f95c",
          "blockNumber": "0x8dca561",
          "transactionHash": "0x8ef13160c55fa74cf0c0e717eab550ac09e1b553e271e1fcff697cc7aac5c46d",
          "transactionIndex": "0x2",
          "logIndex": "0x0",
          "removed": false
        }
      ],
      "logsBloom": "0x00020000000000000000000000000000000000000000000001000000000000000000000000000000000000000000000000000000000000000000000000000000000000000000000000000000000000000000000000000000000000000000000000000000000000000000000000000000000000000000000000000000000000000000000000000000000000000000000000000000200000000800000000000000000000000000000000000000000000000000000000000000000000000000000000000000000000000000000000000000000000002000000000000000000000000000000000000020000000000000000000000000000000000000000000000000",
      "type": "0x2",
      "transactionHash": "0x8ef13160c55fa74cf0c0e717eab550ac09e1b553e271e1fcff697cc7aac5c46d",
      "transactionIndex": "0x2",
      "blockHash": "0x7fb675af47ffcbbbc782edcd794bfb6e716e732888fcd9f42001f5a1a277f95c",
      "blockNumber": "0x8dca561",
      "gasUsed": "0x38136",
      "effectiveGasPrice": "0x5f5e100",
      "from": "0xed0b1a131be880ec49633a80c6df05162fa53518",
      "to": "0x9e263f6c7c199d9c147e30764a8cae1175184cb8",
      "contractAddress": null,
      "gasUsedForL1": "0x304fd",
      "l1BlockNumber": "0x7db766",
      "timeboosted": false
    }
  ],
  "libraries": [],
  "pending": [],
  "returns": {},
  "timestamp": 1746174422,
  "chain": 421614,
  "commit": "a71f475"
}