{
  "transactions": [
    {
      "hash": "0x40b693a0e26e93712e219acc3f51a590d3f0f3b1b0b36c66506751cf194384ac",
      "transactionType": "CALL",
      "contractName": null,
      "contractAddress": "0x9e263f6c7c199d9c147e30764a8cae1175184cb8",
      "function": "deposit(address,address,uint256)",
      "arguments": [
        "0xEeeeeEeeeEeEeeEeEeEeeEEEeeeeEeeeeeeeEEeE",
        "0xD67BF96499FFfc1ade649DC4dfC219e7e8e3e264",
        "50000000000000000"
      ],
      "transaction": {
        "from": "0xed0b1a131be880ec49633a80c6df05162fa53518",
        "to": "0x9e263f6c7c199d9c147e30764a8cae1175184cb8",
        "value": "0xb1a2bc2ec50000",
        "input": "0x8340f549000000000000000000000000eeeeeeeeeeeeeeeeeeeeeeeeeeeeeeeeeeeeeeee000000000000000000000000d67bf96499fffc1ade649dc4dfc219e7e8e3e26400000000000000000000000000000000000000000000000000b1a2bc2ec50000",
        "nonce": "0x6",
        "chainId": "0x66eee"
      },
      "additionalContracts": [],
      "isFixedGasLimit": false
    }
  ],
  "receipts": [
    {
      "status": "0x1",
      "cumulativeGasUsed": "0x1e8fd",
      "logs": [
        {
          "address": "0x9e263f6c7c199d9c147e30764a8cae1175184cb8",
          "topics": [
            "0x0fd38537e815732117cfdab41ba9b6d3eb2c5799d44039c100c05fc9c112f235"
          ],
          "data": "0x000000000000000000000000d67bf96499fffc1ade649dc4dfc219e7e8e3e264000000000000000000000000eeeeeeeeeeeeeeeeeeeeeeeeeeeeeeeeeeeeeeee00000000000000000000000000000000000000000000000000b1a2bc2ec50000",
          "blockHash": "0xc073c5b2bb26dabac8a8a33be968c09f09ed78868fd99f510871560eef9bfa28",
          "blockNumber": "0x8865662",
          "transactionHash": "0x40b693a0e26e93712e219acc3f51a590d3f0f3b1b0b36c66506751cf194384ac",
          "transactionIndex": "0x3",
          "logIndex": "0x0",
          "removed": false
        }
      ],
      "logsBloom": "0x00020000000000000000000000000000000000000000000001000000000000000000000000000000000000000000000000000000000000000000000000000000000000000000000000000000000000000000000000000000000000000000000000000000000000000000000000000000000000000000000000000000000000000000000000000000000000000000000000000000200000000800000000000000000000000000000000000000000000000000000000000000000000000000000000000000000000000000000000000000000000002000000000000000000000000000000000000020000000000000000000000000000000000000000000000000",
      "type": "0x2",
      "transactionHash": "0x40b693a0e26e93712e219acc3f51a590d3f0f3b1b0b36c66506751cf194384ac",
      "transactionIndex": "0x3",
      "blockHash": "0xc073c5b2bb26dabac8a8a33be968c09f09ed78868fd99f510871560eef9bfa28",
      "blockNumber": "0x8865662",
      "gasUsed": "0x7c2d",
      "effectiveGasPrice": "0x5f5e100",
      "from": "0xed0b1a131be880ec49633a80c6df05162fa53518",
      "to": "0x9e263f6c7c199d9c147e30764a8cae1175184cb8",
      "contractAddress": null,
      "gasUsedForL1": "0x0",
      "l1BlockNumber": "0x7bfcf4",
      "timeboosted": false
    }
  ],
  "libraries": [],
  "pending": [],
  "returns": {},
  "timestamp": 1744748881,
  "chain": 421614,
  "commit": "d493b68"
}